:200000000C9463000C948B000C948B000C94FD030C94FD030C94FD030C948B000C948B0051
:200020000C948B000C948B000C948B000C948B000C948B000C948B000C948B000C948B0068
:200040000C94B3030C948B000C9481030C945B030C948B000C948B000C948B000C948B0051
:200060000C948B000C948B0000000000240027002A0000000008000201000003040700009C
:200080000000000000000000000023002600290000000000250028002B000404040404045E
:2000A0000404020202020202030303030303010204081020408001020408102001020408CD
:2000C0001020B1047B0711241FBECFEFD8E0DEBFCDBF22E0A6E4B1E001C01D92AA37B207E1
:2000E000E1F711E0A0E0B1E0E6E2F4E102C005900D92A634B107D9F710E0C2E6D0E004C025
:200100002197FE010E940E08C136D107C9F70E947F050C94060A0C940000AF92BF92CF9278
:20012000DF92EF92FF920F931F93CF93DF936C017B018B01040F151FEB015E01AE18BF0880
:20014000C017D10759F06991D601ED91FC910190F081E02DC6010995892B79F7C501DF91FD
:20016000CF911F910F91FF90EF90DF90CF90BF90AF900895FC01538D448D252F30E0842F03
:2001800090E0821B930B541710F0CF96089501970895FC01918D828D981761F0A28DAE0FFC
:2001A000BF2FB11D5D968C91928D9F5F9F73928F90E008958FEF9FEF0895FC01918D828D43
:2001C000981731F0828DE80FF11D858D90E008958FEF9FEF0895FC01918D228D892F90E081
:2001E000805C9F4F821B91098F739927089586E991E00E94EB0021E0892B09F420E0822FCF
:20020000089580E090E0892B29F00E94F70081110C9400000895FC01A48DA80FB92FB11DA1
:20022000A35ABF4F2C91848D90E001968F739927848FA689B7892C93A089B1898C91837068
:2002400080648C93938D848D981306C00288F389E02D80818F7D80830895EF92FF920F9385
:200260001F93CF93DF93EC0181E0888F9B8D8C8D98131AC0E889F989808185FF15C09FB72A
:20028000F894EE89FF896083E889F98980818370806480839FBF81E090E0DF91CF911F9173
:2002A0000F91FF90EF900895F62E0B8D10E00F5F1F4F0F731127E02E8C8D8E110CC00FB65A
:2002C00007FCFACFE889F989808185FFF5CFCE010E940B01F1CFEB8DEC0FFD2FF11DE35AEF
:2002E000FF4FF0829FB7F8940B8FEA89FB8980818062CFCFCF93DF93EC01888D8823B9F020
:20030000AA89BB89E889F9898C9185FD03C0808186FD0DC00FB607FCF7CF8C9185FFF2CFD0
:20032000808185FFEDCFCE010E940B01E9CFDF91CF91089590E0FC01EE58FF4F2491FC0127
:20034000E255FF4F3491FC01E656FF4FE491EE23C9F0222339F0233001F1A8F4213019F1E3
:20036000223029F1F0E0EE0FFF1FE057FF4FA591B4918FB7F894EC91611126C030953E2359
:200380003C938FBF08952730A9F02830C9F0243049F7809180008F7D03C0809180008F7717
:2003A00080938000DFCF84B58F7784BDDBCF84B58F7DFBCF8091B0008F778093B000D2CF98
:2003C0008091B0008F7DF9CF3E2BDACFCF93DF9390E0FC01E255FF4F249186569F4FFC0134
:2003E00084918823D1F090E0880F991FFC01E859FF4FA591B491FC01E057FF4FC591D49179
:2004000061110EC09FB7F8948C91E22FE0958E238C932881E223E8839FBFDF91CF91089563
:200420008FB7F894EC91E22BEC938FBFF6CF3FB7F8948091870190918801A0918901B0910D
:200440008A0126B5A89B05C02F3F19F00196A11DB11D3FBFBA2FA92F982F8827BC01CD01D4
:20046000620F711D811D911D42E0660F771F881F991F4A95D1F708958F929F92AF92BF927D
:20048000CF92DF92EF92FF920E9417024B015C0184EFC82EDD24D394E12CF12C0E9417025E
:2004A000681979098A099B09683E734081059105A8F321E0C21AD108E108F10888EE880E4E
:2004C00083E0981EA11CB11CC114D104E104F10429F7FF90EF90DF90CF90BF90AF909F903C
:2004E0008F90089520918D0130918E012817390771F490918B0180918C01981741F0E09131
:200500008B01F0E0EA5BFE4F808190E008958FEF9FEF08950895EF92FF920F931F93CF93D1
:20052000DF93DC015C96ED90FC905D97E114F10479F481E090E013969C938E93129790E043
:2005400080E0DF91CF911F910F91FF90EF9008955196ED91FC91529750968C915097982FE4
:2005600090950FB75E962C915E97122F127021FD6095F8942081112319F1282B2083E701CB
:200580002197F1F728E0462F50E0308160FF1AC0382B3083E7012197F1F7BA0175956795C5
:2005A000215089F7112381F08081892380830FBF5C968D919C910197F1F781E090E0C1CF09
:2005C0002923DCCF3923E5CF9081892BEFCF20918D0130918E012817390771F480918C0180
:2005E00020918B0190E0805C9F4F821B910960E470E00E94E607089590E080E0089520916F
:200600008D0130918E0128173907B9F490918B0180918C01981789F0E0918B01F0E0EA5B4B
:20062000FE4F808120918B0130E02F5F3F4F2F73332720938B0190E008958FEF9FEF089512
:2006400090E080E0089542E050E063E371E086E991E00C948D00FC0180819181009711F08F
:200660000C94B00808950F931F93CF93DF93EC0188819981009759F02A813B81261737078B
:2006800030F081E0DF91CF911F910F9108958B016F5F7F4F0E943909009759F09983888309
:2006A0001B830A832C813D81232B59F7FC011082E8CF80E0E7CF1F920F920FB60F921124BD
:2006C0002F933F934F935F936F937F938F939F93AF93BF93EF93FF9386E991E00E940B0114
:2006E000FF91EF91BF91AF919F918F917F916F915F914F913F912F910F900FBE0F901F90E0
:2007000018951F920F920FB60F9211242F938F939F93EF93FF93E091A601F091A7018081D3
:20072000E091AC01F091AD0182FD1BC090818091AF018F5F8F732091B001821741F0E091B3
:20074000AF01F0E0EA56FE4F958F8093AF01FF91EF919F918F912F910F900FBE0F901F90CB
:2007600018958081F4CF1F920F920FB60F9211242F933F938F939F93AF93BF9380918F01FE
:2007800090919001A0919101B09192013091860123E0230F2D3758F50196A11DB11D20930C
:2007A000860180938F0190939001A0939101B09392018091870190918801A0918901B09181
:2007C0008A010196A11DB11D8093870190938801A0938901B0938A01BF91AF919F918F91B9
:2007E0003F912F910F900FBE0F901F90189526E8230F0296A11DB11DD2CF1F920F920FB6E6
:200800000F9211242F933F934F935F936F937F938F939F93AF93BF93EF93FF93E0918D018B
:20082000F0918E01309749F0A685B7858585968D91FF14C09C918923A1F4FF91EF91BF91E2
:20084000AF919F918F917F916F915F914F913F912F910F900FBE0F901F9018959C91892358
:2008600061F7A389B4899C918589809589238C93868997890197F1F7608D718DA685B7859B
:20088000558538E020E0CB010197F1F7822F90E095958795282F4C91452309F02068315015
:2008A00091F7868D81FD209580918C0190E001968F73992730918B01381799F0A0918C0120
:2008C000B0E0AA5BBE4F2C9380938C01828D938D0197F1F7A389B4898C919589892B8C93F1
:2008E000ACCF868D8160868FF1CFEF92FF920F931F93CF93DF93EC017B01198218821B823F
:200900001A821D821C82FB0101900020E9F731978F01061B170BB8010E94330328813981E2
:20092000811113C02115310519F0C9010E94B008198218821D821C821B821A82DF91CF913E
:200940001F910F91FF90EF9008951D830C83B701C901DF91CF911F910F91FF90EF900C941D
:20096000FF09109299011092980188EE93E0A0E0B0E080939A0190939B01A0939C01B0937F
:200980009D0123E131E0309397012093960125EC30E03093A3012093A20124EC30E030933E
:2009A000A5012093A40120EC30E03093A7012093A60121EC30E03093A9012093A80122EC64
:2009C00030E03093AB012093AA0126EC30E03093AD012093AC011092AF011092B001109200
:2009E000B1011092B20110925A021092590280935B0290935C02A0935D02B0935E0285E268
:200A000091E0909358028093570210926E0210926D021092700210926F021092720210927A
:200A200071021092740210927302609175026E7F6D7F609375026695617081E0682782E04B
:200A40000E949A0161E082E00E94E601E0EBF0E0E491E0936702ECE9F0E0E491F0E0EE0F5A
:200A6000FF1FE057FF4F85919491909369028093680260E083E00E94E6018091750281FD5B
:200A800004C061E083E00E949A0183E080936302E1EBF0E0E491E0936402EDE9F0E0E491D1
:200AA000F0E0EE0FFF1FEA57FF4F85919491909366028093650265E371E081E592E00E9469
:200AC000750465E371E08BE492E00E94750466E371E085E492E00E94750465E371E08FE36D
:200AE00092E00E94750465E371E089E392E00E94750465E371E083E392E00C947504CF93EB
:200B0000DF93CDB7DEB729970FB6F894DEBF0FBECDBF789484B5826084BD84B5816084BD80
:200B200085B5826085BD85B5816085BD80916E00816080936E001092810080918100826082
:200B40008093810080918100816080938100809180008160809380008091B100846080933C
:200B6000B1008091B00081608093B00080917A00846080937A0080917A00826080937A0069
:200B800080917A00816080937A0080917A00806880937A001092C100E091A601F091A701B8
:200BA00082E08083E091A201F091A3011082E091A401F091A50180E180831092AE01E091A2
:200BC000AA01F091AB0186E08083E091A801F091A901808180618083E091A801F091A90165
:200BE000808188608083E091A801F091A901808180688083E091A801F091A90180818F7D86
:200C0000808389E0E6E0F1E0DE01119601900D928A95E1F7109272021092710210927002E5
:200C200010926F0210926E0210926D028DEC90E0909374028093730290916302963108F02F
:200C400047C025E530E030936E0220936D022BEC30E03093700220936F0220E930E03093C2
:200C60007202209371022091680084E0983048F031E09E3008F430E081E001C0880F3A95EA
:200C8000EAF7822B809368002DE630E0983050F02BE630E09E3030F02CE630E0963110F028
:200CA00030E020E030936B0220936A02292F30E0983008F009C181E001C0880F9A95EAF71A
:200CC00080936C0280917302909174020197F1F78091710290917202892B49F1E0918D01F0
:200CE000F0918E0122E0E735F20709F1309739F0A389B4899C918589809589238C9380914E
:200D000075028E7F8093750210928C0110928B0187E592E090938E0180938D01E0916A025A
:200D2000F0916B02808190916C02892B808361E084E00E94E60161E085E00E94E6010E947F
:200D40003C0260E084E00E949A0160E085E00E949A010E943C0249E050E0BE016F5F7F4FFE
:200D600087E592E00E948D000E943C024CE050E068E371E086E991E00E948D000E942303B7
:200D800080E0E82E80E0F82ECC24C39487E592E00E94E702892B79F187E592E00E94FF0208
:200DA000D82E89831A8200913702109138020F5F1F4FB80183E392E00E943303882399F067
:200DC00020913302309134028091370290913802BE016F5F7F4F820F931F0E94FF091093A6
:200DE0003802009337028AE0D81619F02DE0D21202C0C092950180919301909194010196FF
:200E0000909394018093930120919501222309F440C0803293405CF08FB7F89440918F01E6
:200E20005091900160919101709192018FBF4091370250913802609133027091340286E9EA
:200E400091E00E948D000E942303109294011092930170E060E083E392E00E9433032091CC
:200E600033023091340281113CC02115310519F0C9010E94B00810923402109233021092CE
:200E800038021092370210923602109235021092950186E991E00E94EB00892B49F086E989
:200EA00091E00E94C900682F86E991E00E942D01E114F10409F46ACF0E94F700882309F4AE
:200EC00065CF0E94000062CF9E3040F42850310981E001C0880F2A95EAF7F2CE2E50310986
:200EE000F7CF109238021092370265E371E0C9010E94FF09CCCF83E392E00E942B0389E3B9
:200F000092E00E942B038FE392E00E942B0385E492E00E942B038BE492E00E942B0381E519
:200F200092E00E942B0385E291E0909358028093570280918D0190918E018755924071F44C
:200F4000E0916A02F0916B02908180916C0280958923808310928E0110928D0108952F92B3
:200F60003F924F925F926F927F928F929F92AF92BF92CF92DF92EF92FF920F931F93CF933E
:200F8000DF93CDB7DEB7CA1BDB0B0FB6F894DEBF0FBECDBF09942A88398848885F846E84FF
:200FA0007D848C849B84AA84B984C884DF80EE80FD800C811B81AA81B981CE0FD11D0FB6E2
:200FC000F894DEBF0FBECDBFED01089597FB072E16F4009407D077FD09D00E94FA0707FCD5
:200FE00005D03EF4909581959F4F0895709561957F4F0895AA1BBB1B51E107C0AA1FBB1F87
:20100000A617B70710F0A61BB70B881F991F5A95A9F780959095BC01CD010895EE0FFF1F67
:201020000590F491E02D09940F931F93CF93DF938230910510F482E090E0E0917802F0913A
:20104000790230E020E0B0E0A0E0309799F42115310509F44AC0281B390B24303105D8F550
:201060008A819B816115710589F1FB0193838283FE0111C040815181028113814817590793
:20108000E0F04817590799F4109761F012960C93129713961C933296CF01DF91CF911F91DC
:2010A0000F9108950093780210937902F4CF2115310551F04217530738F0A901DB019A015C
:2010C000BD01DF01F801C1CFEF01F9CF9093790280937802CDCFFE01E20FF31F8193919330
:2010E0002250310939832883D7CF2091760230917702232B41F42091020130910301309315
:2011000077022093760220910001309101012115310541F42DB73EB740910401509105017F
:20112000241B350BE0917602F0917702E217F307A0F42E1B3F0B2817390778F0AC014E5FF2
:201140005F4F2417350748F04E0F5F1F5093770240937602819391939FCFF0E0E0E09CCF0F
:20116000CF93DF930097E9F0FC01329713821282A0917802B0917902ED0130E020E0109730
:20118000A1F420813181820F931F20917602309177022817390709F061C0F0937702E093B9
:2011A0007602DF91CF910895EA01CE17DF07E8F54A815B819E0141155105B1F7E901FB83B5
:2011C000EA8349915991C40FD51FEC17FD0761F4808191810296840F951FE90199838883B8
:2011E000828193819B838A83F0E0E0E012968D919C9113970097B9F52D913C911197CD013A
:201200000296820F931F20917602309177022817390739F6309751F510927902109278029C
:20122000B0937702A0937602BCCFD383C28340815181840F951FC817D90761F44E5F5F4FD8
:2012400088819981480F591F518340838A819B81938382832115310509F0B0CFF0937902E1
:20126000E09378029ECFFD01DC01C0CF13821282D7CFB0E0A0E0EFE3F9E00C94B1078C013B
:20128000009751F4CB010E9414088C01C801CDB7DEB7E0E10C94CD07FC01E60FF71F9C019F
:2012A00022503109E217F30708F49DC0D901CD91DC911197C617D70798F0C530D10530F3B8
:2012C000CE0104978617970708F3C61BD70B2297C193D1936D937C93CF010E94B008D6CF5C
:2012E0005B01AC1ABD0A4C018C0E9D1EA0917802B0917902512C412CF12CE12C109731F51B
:2013000080917602909177028815990509F05CC04616570608F058C080910001909101015C
:20132000009741F48DB79EB74091040150910501841B950BE817F90708F055C0F093770244
:20134000E0937602F90171836083A0CF8D919C91119712966C90129713967C901397A81506
:20136000B90559F56C0142E0C40ED11CCA14DB0420F1AC014A195B09DA011296159780F032
:201380006282738251834083D9016D937C93E114F10471F0D7011396FC93EE93129776CF2A
:2013A00022968C0F9D1FF90191838083F301EFCFF0937902E093780269CF4816590608F47F
:2013C0002C017D01D3019ACFCB010E9414087C01009749F0AE01B8010E94F609C8010E94DA
:2013E000B008870153CF10E000E050CFFB01DC0102C001900D9241505040D8F70895FB0148
:20140000DC0101900D920020E1F7089510E0C2E6D0E004C0FE010E940E082196C336D107DF
:20142000C9F7F894FFCF00007A028000AA0001BE00010001C1000000002D018D00BA007A7B
:2014400001EB00C900DD00000000008B028D0020038A02E702FF0272020D0A0030005374C5
:201460006172742064616E7963680000FFFFFFFFFFFFFFFFFFFFFFFFFFFFFFFFFFFFFFFFA2
:2014800001C0880F9A95EAF78093280380912F03909130030197F1F780912D0390912E03FC
:2014A000892B49F1E0915302F091540223E0E331F20709F1309739F0A389B4899C91858903
:2014C000809589238C93809131038E7F80933103109252021092510283E193E09093540258
:2014E00080935302E0912603F0912703808190912803892B808361E084E00E94E80161E0CA
:2015000085E00E94E80164EF71E080E090E00E943E0260E084E00E949C0164EF71E080E09E
:2015200090E00E943E0268E471E083E193E00E942A056AE471E083E193E00E942A058BE35F
:20154000C82E8FE1D82E90E0E92E90E0F92EAA24A39483E193E00E94B804892B69F183E155
:2015600093E00E94D004B82E89831A8200911103109112030F5F1F4FC8010E943905882369
:2015800099F020910D0330910E038091110390911203BE016F5F7F4F820F931F0E94D70DB0
:2015A00010931203009311038AE0B81619F02DE0B21202C0A092570280915502909156028C
:2015C0000196909356028093550280915702882309F456C0409111035091120360910D038B
:2015E00070910E0388E592E00E948F006AE471E088E592E00E942A05809155029091560299
:2016000080329340FCF040E061E081E093E00E940D05C6010197F1F740E060E881E093E0ED
:201620000E940D05409111035091120360910D0370910E0381E093E00E948F001092560209
:201640001092550290E080E00E94390520910D0330910E0381112DC02115310519F0C90190
:201660000E94880C10920E0310920D0310921203109211031092100310920F0310925702FE
:20168000E114F10409F465CF0E94F900882309F460CF0E9400005DCF9E3040F4285031093B
:2016A00081E001C0880F2A95EAF7EECE2E503109F7CF10921203109211036CE471E0C901BF
:2016C0000E94D70DDBCF80910D0390910E03009711F00E94880C8AE391E09093140380938E
:2016E000130380915302909154028351934071F4E0912603F0912703908180912803809544
:2017000089238083109254021092530208952F923F924F925F926F927F928F929F92AF9285
:20172000BF92CF92DF92EF92FF920F931F93CF93DF93CDB7DEB7CA1BDB0B0FB6F894DEBF7A
:201740000FBECDBF09942A88398848885F846E847D848C849B84AA84B984C884DF80EE80C7
:20176000FD800C811B81AA81B981CE0FD11D0FB6F894DEBF0FBECDBFED01089597FB072EFA
:2017800016F4009407D077FD09D00E94D20B07FC05D03EF4909581959F4F0895709561953D
:2017A0007F4F0895AA1BBB1B51E107C0AA1FBB1FA617B70710F0A61BB70B881F991F5A953B
:2017C000A9F780959095BC01CD010895EE0FFF1F0590F491E02D09940F931F93CF93DF9300
:2017E0008230910510F482E090E0E0913403F091350330E020E0B0E0A0E0309799F42115C0
:20180000310509F44AC0281B390B24303105D8F58A819B816115710589F1FB019383828309
:20182000FE0111C0408151810281138148175907E0F04817590799F4109761F012960C9314
:20184000129713961C933296CF01DF91CF911F910F9108950093340310933503F4CF211594
:20186000310551F04217530738F0A901DB019A01BD01DF01F801C1CFEF01F9CF90933503BB
:2018800080933403CDCFFE01E20FF31F819391932250310939832883D7CF209132033091C8
:2018A0003303232B41F420910201309103013093330320933203209100013091010121156A
:2018C000310541F42DB73EB74091040150910501241B350BE0913203F0913303E217F30738
:2018E000A0F42E1B3F0B2817390778F0AC014E5F5F4F2417350748F04E0F5F1F509333032F
:2019000040933203819391939FCFF0E0E0E09CCFCF93DF930097E9F0FC01329713821282EB
:20192000A0913403B0913503ED0130E020E01097A1F420813181820F931F2091320330914F
:2019400033032817390709F061C0F0933303E0933203DF91CF910895EA01CE17DF07E8F557
:201960004A815B819E0141155105B1F7E901FB83EA8349915991C40FD51FEC17FD0761F411
:20198000808191810296840F951FE90199838883828193819B838A83F0E0E0E012968D91AC
:2019A0009C9113970097B9F52D913C911197CD010296820F931F2091320330913303281713
:2019C000390739F6309751F51092350310923403B0933303A0933203BCCFD383C283408110
:2019E0005181840F951FC817D90761F44E5F5F4F88819981480F591F518340838A819B81AF
:201A0000938382832115310509F0B0CFF0933503E09334039ECFFD01DC01C0CF1382128262
:201A2000D7CFB0E0A0E0E7E1FDE00C94890B8C01009751F4CB010E94EC0B8C01C801CDB76F
:201A4000DEB7E0E10C94A50BFC01E60FF71F9C0122503109E217F30708F49DC0D901CD910B
:201A6000DC911197C617D70798F0C530D10530F3CE0104978617970708F3C61BD70B229704
:201A8000C193D1936D937C93CF010E94880CD6CF5B01AC1ABD0A4C018C0E9D1EA0913403E1
:201AA000B0913503512C412CF12CE12C109731F580913203909133038815990509F05CC0DF
:201AC0004616570608F058C08091000190910101009741F48DB79EB74091040150910501E6
:201AE000841B950BE817F90708F055C0F0933303E0933203F90171836083A0CF8D919C91AF
:201B0000119712966C90129713967C901397A815B90559F56C0142E0C40ED11CCA14DB049D
:201B200020F1AC014A195B09DA011296159780F06282738251834083D9016D937C93E11433
:201B4000F10471F0D7011396FC93EE93129776CF22968C0F9D1FF90191838083F301EFCFDE
:201B6000F0933503E093340369CF4816590608F42C017D01D3019ACFCB010E94EC0B7C0145
:201B8000009749F0AE01B8010E94CE0DC8010E94880C870153CF10E000E050CFFB01DC011F
:201BA00002C001900D9241505040D8F70895FB01DC0101900D920020E1F7089510E0C2E670
:201BC000D0E004C0FE010E94E60B2196C336D107C9F7F894FFCF00003603800000000000A4
:201BE0002F018F00BC007C01ED00CB00DF00000000002E030103F104D702FA02E702D80294
:201C00000000000024058F00F1047002000000005C048F00F104D702B804D00444044600CA
:201C20000D0A0000FFFFFFFFFFFFFFFFFFFFFFFFFFFFFFFFFFFFFFFFFFFFFFFFFFFFFFFFA9
:201C4000FFFFFFFFFFFFFFFFFFFFFFFFFFFFFFFFFFFFFFFFFFFFFFFFFFFFFFFFFFFFFFFFA4
:201C6000FFFFFFFFFFFFFFFFFFFFFFFFFFFFFFFFFFFFFFFFFFFFFFFFFFFFFFFFFFFFFFFF84
:201C8000B1F7E901FB83EA8349915991C40FD51FEC17FD0761F4808191810296840F951FEE
:201CA000E90199838883828193819B838A83F0E0E0E012968D919C9113970097B9F52D91A1
:201CC0003C911197CD010296820F931F20914C0330914D032817390739F6309751F5109278
:201CE0004F0310924E03B0934D03A0934C03BCCFD383C28340815181840F951FC817D907CB
:201D000061F44E5F5F4F88819981480F591F518340838A819B81938382832115310509F0E3
:201D2000B0CFF0934F03E0934E039ECFFD01DC01C0CF13821282D7CFB0E0A0E0E2EAFEE02B
:201D40000C94F20C8C01009751F4CB010E94770D8C01C801CDB7DEB7E0E10C940E0DFC01A2
:201D6000E60FF71F9C0122503109E217F30708F49DC0D901CD91DC911197C617D70798F033
:201D8000C530D10530F3CE0104978617970708F3C61BD70B2297C193D1936D937C93CF01A2
:201DA0000E94130ED6CF5B01AC1ABD0A4C018C0E9D1EA0914E03B0914F03512C412CF12C14
:201DC000E12C109731F580914C0390914D038815990509F05CC04616570608F058C080912E
:201DE000040190910501009741F48DB79EB74091080150910901841B950BE817F90708F057
:201E000055C0F0934D03E0934C03F90171836083A0CF8D919C91119712966C9012971396EF
:201E20007C901397A815B90559F56C0142E0C40ED11CCA14DB0420F1AC014A195B09DA01B8
:201E40001296159780F06282738251834083D9016D937C93E114F10471F0D7011396FC930A
:201E6000EE93129776CF22968C0F9D1FF90191838083F301EFCFF0934F03E0934E0369CF50
:201E80004816590608F42C017D01D3019ACFCB010E94770D7C01009749F0AE01B8010E9458
:201EA000590FC8010E94130E870153CF10E000E050CFFB01DC0102C001900D9241505040A9
:201EC000D8F70895FB01DC0101900D920020E1F7089510E0C2E6D0E004C0FE010E94710DCD
:201EE0002196C336D107C9F7F894FFCFAF02AF020000500380000000400014005400000063
:201F000000002F018F00BC007C01ED00CB00DF00000000006E034103310517033A032703C6
:201F2000180300000000B3058F003105B002000000009C048F0031051703F804100584043F
:201F400046000D0A00456E6B6F3A2000204479737400FFFFFFFFFFFFFFFFFFFFFFFFFFFF87
:201F6000FFFFFFFFFFFFFFFFFFFFFFFFFFFFFFFFFFFFFFFFFFFFFFFFFFFFFFFFFFFFFFFF81
:201F80000284F385E02DB7010995F8018285869586958695E80FF11D16866801FBE4CF0EC9
:201FA000D11CD601ED91FC910190F081E02DA680B780B801635B7F4FC7010E94F90AF8013B
:201FC00032852385D6014C9111965C919F938F9332FB882780F91F928F933695369536957D
:201FE0001F923F93822F8295869587701F928F9384851F928F9327701F922F9385851F9210
:202000008F9381851F928F9387811F928F9380851F928F9388EA90E09F938F9386818F93B3
:202020005F934F93F5010995D8011A968C911A97982F9B7F1A969C9383700FB6F894DEBF40
:202040000FBECDBF8230D9F0D601ED91FC91208131818AE990E09F938F93D80116968C919E
:202060008F93FF93EF93D9011696ED91FC91179709950F900F900F900F900F9075C1F80103
:20208000338537702485B0846781808141859481481316C1992361F08181681749F08B2D8F
:2020A00090E003962B833A830E940F273A812B81D8011B968C911B9783FF1BC081E2F8015B
:2020C0003796989601900D928A95E1F7F80184A5877F806184A7808181A7808582A7B8019A
:2020E000685D7F4FC8012B833A830E94650D3A812B81333009F0D8C0283009F044C0D8017C
:2021000015968C91882309F42FC1C7010E94740B8F3F09F429C18F5F8F3F09F425C1F80129
:202120009281891708F020C1F80182836085618381E090E00E940F27D80112966C9182E0C3
:2021400090E00E940F27D601ED91FC9120813181D80112968C9112971F928F9311968C9124
:2021600011971F928F9389E890E09F938F9316968C918F93FF93EF93D9011696ED91FC911F
:2021800017970995ECC0B1108FC02D3061F428E088E190E00FB6F894A895809360000FBED6
:2021A00020936000FFCF243009F049C0D8018C918F3F09F0D9C0C7010E94740BF8018083AD
:2021C0008F3FD9F4D601ED91FC912081318183E890E09F938F93D80116968C918F93FF93AA
:2021E000EF93D9011696ED91FC91179709950F900F900F900F900F90FFCFC8010E94800E9E
:20220000F801608180E090E00E940F27D601ED91FC9120813181D8018C911F928F938CE7CB
:2022200090E09F938F9316968C918F93FF93EF93D9011696ED91FC911797099590C0263058
:2022400081F4C7010E94960A61E0DC018C918D3409F060E0F801638383E091E00E940F273F
:2022600083C02A3079F4D80114968C91882309F47BC0C7010E94960AFC018081833409F019
:2022800073C074C0213009F06FC0F801EF57FF4F008111810115110509F466C0C7010E9405
:2022A000850BF801099560C0F801ED57FF4F0190F081E02D309709F450C0C70109954DC0F6
:2022C000992309F451C08F3F09F44EC03330E9F52730D9F58181B81609F446C082818F3F51
:2022E00019F4C8010E94130DF80182818F3FE1F10E94AD1BAB01BC01537066277727C80120
:202300000E94990CD80112966C9112978C9118968C9318971996BC9219978FEF1D968C93B9
:202320001D9788E01C968C931C971B968C911B97807E83601B968C93C7010E94BF0BAC01EB
:202340006B2DC8010E94FB0B0FC0998198130CC0B701C8010E94650D07C081E05AC00FB678
:20236000F894DEBF0FBECDBF80E053C0D601ED91FC912081318185E790E09F938F93D8012A
:2023800016968C918F93FF93EF93D9011696ED91FC91179709950F900F900F900F900F9046
:2023A000DD24DA948D2D90E06FEF03960E940F278FEF8D0DDD2011F0D82EF4CF6FEF81E017
:2023C00090E00E940F276FEF82E090E00E940F27C8010E94130DD8018C9118968C931897B0
:2023E00019961C9219978FEF1D968C931D978AE01C968C931C971B968C911B97807E83607D
:202400001B968C9368E671E0C7010E949A0BBC01A0CF0F900F900F90DF91CF911F910F9115
:20242000FF90EF90DF90CF90BF90AF9008950F931F93CF93DF9300D000D0CDB7DEB78C0127
:20244000FC01E75BFF4F80819181DC01ED91FC910484F585E02D49835A836B837C830995B1
:20246000F801E55BFF4F80819181DC01ED91FC910190F081E02D49815A816B817C810F909E
:202480000F900F900F90DF91CF911F910F91099420E132E0FC01318320830895FC01838995
:2024A0000895DF92EF92FF920F931F93CF93DF938C01EC012296CE010E94F517CE010E94B4
:2024C0005017D82E8823A9F161E0CE010E94531740E062E0CE010E945B17CE010E9432172F
:2024E0006CE4CE010E940815F8016489CE010E94901762E070E0CE010E94A9174FE065E0C9
:20250000CE010E944C1862E070E0CE010E94D917CE010E941417EE24EA948CEFF82E01EE37
:2025200018EA28EA30E040E050E062E0CE010E9450168D2DDF91CF911F910F91FF90EF9026
:20254000DF9008954F925F927F928F929F92AF92BF92CF92DF92EF92FF920F931F93CF930E
:20256000DF931F92CDB7DEB7FC01262F638B30E040E050E060E070E080E090E034504E410C
:20258000574567457F4F8F4F9F4F922EA32EB42EC52ED62E782E892E2F0182E0480E511C3D
:2025A000E92CFA2C0B2D1C2D2D2D372F472D582D60E0C20179830E9450162D2D7981372FE5
:2025C000472D582D61E0C2010E945016C2010F90DF91CF911F910F91FF90EF90DF90CF9098
:2025E000BF90AF909F908F907F905F904F900C94CF16CF92DF92EF92FF920F931F93CF9303
:20260000DF93D62E7A01C22EEC012296CE010E945015CE010E940F152D2D30E040E050E00F
:2026200060E070E080E090E034504E41574567457F4F8F4F9F4F89019A01AB01BC01CE01E8
:202640000E94151621E08FEFD81220E04C2DB701CE010E947E15F82ECE010E94CF168F2DD7
:20266000DF91CF911F910F91FF90EF90DF90CF900895BF92CF92DF92EF92FF920F931F9338
:20268000CF93DF931F92CDB7DEB77C018B01BB24BA94B9826C0182E0C80ED11CBE016F5F0C
:2026A0007F4FC6010E94C0158981813029F4F7018389F801808304C0823011F4F801B08290
:2026C000C6010E940516882321F081E09981963008F080E00F90DF91CF911F910F91FF90D3
:2026E000EF90DF90CF90BF900895EF92FF921F93CF93DF9300D0CDB7DEB702967C0169831F
:202700007A830E949C15182F482F69817A81C7010E940916812F0F900F90DF91CF911F91CF
:20272000FF90EF90089502960C943E150F931F93CF93DF9300D01F92CDB7DEB78C012B8366
:202740004A8369830E944812E2E2F2E0D801ED93FD93CD014A8169810E94FE142B81F80169
:20276000248B0F900F900F90DF91CF911F910F9108958EBD00000DB407FEFDCF8EB5089553
:202780002CB52F7D2CBD2CB5237F2CBD2CB52C7F2CBD2DB521602DBDFC0181810C94AC1C2E
:2027A000FC018081918189130C94AC1C08951F93CF93DF93EC01162F60E00E94C013812F4B
:2027C0008F710E94B9138FEF0E94B913182F61E0CE010E94C013812FDF91CF911F91089506
:2027E000CF92DF92EF92FF920F931F93CF93DF9300D0CDB7DEB78C01E62EF22E60E0498317
:202800005A830E94C0138E2D8F7180620E94B913E82E4981C42E5A81D52EF40EFC1431F078
:20282000F60181916F010E94B913F8CF61E0C8010E94C0138E2D0F900F90DF91CF911F91F2
:202840000F91FF90EF90DF90CF900895EF92FF921F93CF93DF931F92CDB7DEB77C01162F3B
:2028600060E049830E94C013812F8F7180620E94B913182F4981842F0E94B91361E0C7019C
:202880000E94C013812F0F90DF91CF911F91FF90EF900895AF92BF92CF92DF92EF92FF92D3
:2028A0000F931F93CF93DF9300D0CDB7DEB78C01D62EFC01E380F42EE41608F4FE2CF801DB
:2028C0008481811102C0EF1801C0E12C60E0C80129837A830E94C0132981822F0E94B913DA
:2028E000C82EAD2C7A81B72EFD0CFA1431F0F50181915F010E94B913F8CFEE2029F080E0CD
:202900000E94B913EA94F9CF61E0C8010E94C0138C2D0F900F90DF91CF911F910F91FF90DE
:20292000EF90DF90CF90BF90AF900895AF92BF92CF92DF92EF92FF920F931F93CF93DF9381
:202940001F92CDB7DEB78C01D62EFC01E380F42EE41608F4FE2CF8018481811102C0EF1821
:2029600001C0E12C60E0C80179830E94C01381E60E94B913C82EAD2C7981B72EFD0CFA1475
:2029800039F08FEF0E94B913F50181935F01F7CFEE2029F08FEF0E94B913EA94F9CF61E058
:2029A000C8010E94C0138C2D0F90DF91CF911F910F91FF90EF90DF90CF90BF90AF9008955A
:2029C0001F93CF93DF93EC01162F60E00E94C013812F0E94B913182F61E0CE010E94C013A0
:2029E000812FDF91CF911F91089562EE0C94E01461EE0C94E0146FEF0C94E014FC01608371
:202A00004183128280E28383148285E082870895462F603808F04FE765E00C942614CF9399
:202A2000DF93EC0160E00E94D01382E890E00E94041C6DE1CE010E94D71381FF03C0CE011B
:202A40000E94F81460E0CE010E94D713482F4E7F60E0CE010E94261462E0CE010E94D71361
:202A6000E8E6F1E04491482B62E0CE010E94261484E690E0DF91CF910C94041CCF93DF9344
:202A8000EC0160E00E94D01360E0CE010E94D713482F4D7F60E0CE01DF91CF910C942614ED
:202AA000CF93DF93EC0160E00E94D71381FD12C060E0CE010E94D713482F426060E0CE0176
:202AC0000E94261465E070E080E090E0DF91CF910C94DC1BDF91CF910895CF93DF93EC0120
:202AE000222311F020EB01C020EACE010E944A1461E0CE01DF91CF910C94D013CF93DF93B4
:202B0000EC010E946D15CE010E94FB148073D9F360E0CE010E94D01340E767E0CE010E94F2
:202B2000261484FF05C0CE010E94F81480E001C081E0DF91CF9108951F93CF93DF93EC0134
:202B400060E00E94C01380E60E94B9138FEF0E94B913182F61E0CE010E94C013113258F0A9
:202B6000CE010E94F51462E070E080E090E00E94DC1B80E001C0812FDF91CF911F910895F2
:202B8000CF92DF92EF92FF920F931F93CF93DF93EC018B018F858823C9F00E94B91BCB8473
:202BA000DC84ED84FE846C197D098E099F09603273408105910518F48F858111EECF0E9406
:202BC000B91B6B877C878D879E871F8667E1CE010E94D71380FD0DC00115110561F0CE0115
:202BE0000E94FB1490E0959587958770F801808302C080E001C081E0DF91CF911F910F9117
:202C0000FF90EF90DF90CF90089560E070E00C94C015CF93DF93EC010E94961440E767E0BB
:202C2000CE01DF91CF910C942614EF92FF920F931F93CF93DF93CDB7DEB728970FB6F894B8
:202C4000DEBF0FBECDBF7C0109831A832B833C834D835E836F837887FC012285AE014F5FC8
:202C60005F4F6AE00E94F013F7012285AE014F5F5F4F60E1C7010E94F013F701438161E161
:202C8000C7010E94261428960FB6F894DEBF0FBECDBFDF91CF911F910F91FF90EF900895C0
:202CA000BF92CF92DF92EF92FF920F931F93CF93DF93CDB7DEB728970FB6F894DEBF0FBE24
:202CC000CDBF6C01B62EE982FA820B831C832D833E834F83588761110AC0FC01428550E0B1
:202CE000BE016F5F7F4F05960E94372406C0F6E0F61778F181E0681308C0EB2DF0E0EC58FF
:202D0000FE4F6491F601228506C0E62FF0E0EC58FE4F649121E0AE014F5F5F4FC6010E942D
:202D2000F0130B2D10E0F801E259FE4F6491F6014381C6010E94261462E0C6010E94D713FF
:202D4000F801E859FE4F4491482B62E0C6010E94261428960FB6F894DEBF0FBECDBFDF914A
:202D6000CF911F910F91FF90EF90DF90CF90BF9008951F93CF93DF93EC01162F62E00E943F
:202D8000D713E12FF0E0E859FE4F44914095482362E0CE01DF91CF911F910C942614CF93F9
:202DA000DF93EC010E94501560E0CE010E94D713482F416060E0CE010E94261440E767E0A1
:202DC000CE010E9426148D81882349F02A85AE014B5F5F4F6AE0CE010E94F01304C060E0DE
:202DE000CE010E94B9166DE1CE010E94D71381FF03C0CE010E94F81461E0CE01DF91CF914A
:202E00000C94D013CF93DF93EC0160E00E94C01380E50E94B91383E70E94B91361E0CE01FE
:202E2000DF91CF910C94C013CF93DF93EC010E9402176DE1CE010E94D713482F44606DE1C1
:202E4000CE010E9426146CE1CE010E94D713482F4F636CE1CE010E94261481E08C83DF911E
:202E6000CF910895CF93DF93EC010E9402176DE1CE010E94D713482F46606DE1CE010E9454
:202E800026146CE1CE010E94D713482F43606CE1CE010E94261481E08C83DF91CF91089561
:202EA000FC0182810895662311F04FE301C040E061E00C942614EF92FF921F93CF93DF9325
:202EC0001F92CDB7DEB77C01162F673010F561E049830E94D7134981442349F041E050E076
:202EE000012E01C0440F0A94EAF7482B08C041E050E001C0440F1A95EAF74095482361E05F
:202F0000C7010F90DF91CF911F91FF90EF900C9426140F90DF91CF911F91FF90EF90089518
:202F20001F93CF93DF93EC01162F66E00E94D713887F143020F4612F660F6F5F01C067E0CD
:202F4000462F482B66E0CE01DF91CF911F910C942614EF92FF920F931F93CF93DF931F922F
:202F6000CDB7DEB77C018B0166E00E94D713282F277D0230110511F4206204C00130110588
:202F800009F42860422F66E0C70129830E94261466E0C7010E94D71391E02981821390E0EB
:202FA000892F0F90DF91CF911F910F91FF90EF9008950F931F93CF93DF93EC018B0160E00E
:202FC0000E94D713482F437F0115110531F00130110511F4486001C04C6060E0CE01DF91FF
:202FE000CF911F910F910C942614CF93DF93EC0188819981891719F061E00E94731C89813E
:203000009881981719F061E00E94731C0E94DD0760E0CE010E94D01361E0CE010E94C013CE
:2030200065E070E080E090E00E94DC1B4FE564E0CE010E94261462E070E0CE010E94A917AC
:20304000882311F081E08A8360E070E0CE010E94A91762E070E0CE010E94D91740E767E034
:20306000CE010E9426146CE4CE010E940815CE010E94F514CE010E94F814CE010E945015FA
:2030800060E0CE010E94D713482F4E7F60E0CE01DF91CF910C94261420E1629FB0011124B0
:2030A0004F70462B64E00C9426142091CD033091CE0328173907B9F490918B0380918C0334
:2030C000981789F0E0918B03F0E0E357FC4F808120918B0330E02F5F3F4F2F733327209359
:2030E0008B0390E008958FEF9FEF08951F93CF93DF93DC015C968D919C915D97009749F424
:2031000081E090E013969C938E93129780E090E03BC05196ED91FC91529750962C9150970C
:20312000322F30951FB75E964C915E9741FB772770F941FD6095F8944081772311F0422B02
:2031400001C043234083EC012197F1F748E0508160FF02C0522B01C053235083EC012197B2
:20316000F1F76695415099F78081772311F0832301C0822B80831FBF5C968D919C915D9789
:203180000197F1F781E090E0DF91CF911F9108952091CD033091CE032817390781F4909199
:2031A0008B0380918C03981751F0E0918B03F0E0E357FC4F8081992787FD909508958FEF18
:2031C0009FEF08952091CD033091CE032817390771F480918C0320918B0390E0805C9F4FB4
:2031E000821B910960E470E00E946C21089580E090E008952091CD033091CE032817390739
:2032000039F48FB7F89410928C0310928B038FBF0895E091CD03F091CE03E817F90769F474
:20322000A389B4899C918589809589238C931092CE031092CD0381E0089580E00895CF93C8
:20324000DF93EC018A8D9B8D892BF1F08091CD039091CE038C179D07B9F0009711F00E943E
:2032600009198E8D8E7F8E8F10928C0310928B03D093CE03C093CD03EB89FC8980819D890F
:20328000892B808381E001C080E0DF91CF9108951F920F920FB60F9211242F933F934F9325
:2032A0005F936F937F938F939F93AF93BF93EF93FF93E091CD03F091CE03309709F451C0A4
:2032C000868DA685B785958581FF04C08C91892329F447C08C91892309F043C0A389B489FB
:2032E0009C918589809589238C93868997890197F1F7208D318DA685B785758558E040E0E0
:20330000C9010197F1F7842F90E095958795482F6C91672309F04068515091F7868D81FDA1
:20332000409580918C0390E001968F73992720918B03281749F0A0918C03B0E0A357BC4F43
:203340004C9380938C0303C0868D8160868F828D938D0197F1F7A389B4898C919589892B19
:203360008C93FF91EF91BF91AF919F918F917F916F915F914F913F912F910F900FBE0F90C3
:203380001F90189524E332E0FC01318320830C9409191F93CF93DF93EC01162F6E8D6695F4
:2033A000617081E06827812F0E94AC1C61E0812F0E94731C812F90E0FC01E257FE4FE491F8
:2033C000E88BFC01EE55FE4FE491F0E0EE0FFF1FE054FE4F859194919A8B898BDF91CF91C8
:2033E0001F9108951F93CF93DF93EC01162F60E0812F0E94731C8E8D81FD04C061E0812F59
:203400000E94AC1C1C87812F90E0FC01E257FE4FE491ED87FC01EE55FE4FE491F0E0EE0F44
:20342000FF1FEA54FE4F859194919F878E87DF91CF911F910895FF920F931F93CF93DF9397
:20344000EC01F62E522F1B821A8208EE13E020E030E00C831D832E833F8384E392E0998311
:2034600088831F8A1E8A198E188E1B8E1A8E1D8E1C8E8E8D8E7F50FB81F98E8F642FCE0191
:203480000E94C9196F2DCE01DF91CF911F910F91FF900C94F219CF93DF93EC019A01AB01DB
:2034A0001B8E1A8E198E188E1F8A1E8A60E079E08DE390E00E94A221C9012430310520F0DB
:2034C000B9016350710902C061E070E07D8F6C8FEC85E63108F068C0B901769567956431AD
:2034E000710518F06351710902C061E070E07F8B6E8B069718F0C901059702C081E090E02C
:20350000998F888FC901880F991F820F931F96958795969587958D30910510F00C9702C0CA
:2035200081E090E09B8F8A8F20916800E83050F091E0EE3008F490E081E001C0880F9A9523
:20354000EAF701C084E0822B809368002C85283038F02E3040F0263148F48CE690E008C041
:203560008DE690E005C08BE690E002C080E090E09C8B8B8B283030F481E001C0880F2A95FF
:20358000EAF70DC0822F90E02E3010F4089701C00E9791E001C0990F8A95EAF7892F8D8B4B
:2035A0008C8D9D8D0197F1F7CE01DF91CF910C941F198230E8F4E82FF0E0EE0FFF1FE1530D
:2035C000FC4F71836083813041F0809169008C7F842B80936900E89A089580916900440F4B
:2035E000551F440F551F837F842B80936900E99A0895823068F4813011F0E89801C0E998C1
:20360000E82FF0E0EE0FFF1FE153FC4F1182108208951F920F920FB60F9211242F933F93E6
:203620004F935F936F937F938F939F93AF93BF93EF93FF938091CF039091D003892B29F002
:20364000E091CF03F091D0030995FF91EF91BF91AF919F918F917F916F915F914F913F9195
:203660002F910F900FBE0F901F9018951F920F920FB60F9211242F933F934F935F936F93CC
:203680007F938F939F93AF93BF93EF93FF938091D1039091D203892B29F0E091D103F091AE
:2036A000D2030995FF91EF91BF91AF919F918F917F916F915F914F913F912F910F900FBECB
:2036C0000F901F9018951F920F920FB60F9211242F933F938F939F93AF93BF938091D4039E
:2036E0009091D503A091D603B091D7033091D30323E0230F2D3720F40196A11DB11D05C080
:2037000026E8230F0296A11DB11D2093D3038093D4039093D503A093D603B093D70380919D
:20372000D8039091D903A091DA03B091DB030196A11DB11D8093D8039093D903A093DA0364
:20374000B093DB03BF91AF919F918F913F912F910F900FBE0F901F9018952FB7F89460910E
:20376000D4037091D5038091D6039091D7032FBF08953FB7F8948091D8039091D903A0918D
:20378000DA03B091DB0326B5A89B05C02F3F19F00196A11DB11D3FBF6627782F892F9A2FFD
:2037A000620F711D811D911D42E0660F771F881F991F4A95D1F70895CF92DF92EF92FF920A
:2037C000CF93DF936B017C010E94B91BEB01C114D104E104F10489F00E946B210E94B91B29
:2037E0006C1B7D0B683E734090F381E0C81AD108E108F108C851DC4FEACFDF91CF91FF9084
:20380000EF90DF90CF9008958230910538F0880F991F880F991F05970197F1F708957894EB
:2038200084B5826084BD84B5816084BD85B5826085BD85B5816085BDEEE6F0E08081816090
:203840008083E1E8F0E01082808182608083808181608083E0E8F0E0808181608083E1EB26
:20386000F0E0808184608083E0EBF0E0808181608083EAE7F0E080818460808380818260A4
:2038800080838081816080838081806880831092C1000895833081F028F4813099F0823028
:2038A000A1F008958730A9F08830B9F08430D1F4809180008F7D03C0809180008F778093A6
:2038C0008000089584B58F7702C084B58F7D84BD08958091B0008F7703C08091B0008F7D50
:2038E0008093B0000895CF93DF9390E0FC01E257FE4F2491FC01EE55FE4F8491882349F165
:2039000090E0880F991FFC01E653FE4FA591B49180549E4FFC01C591D4919FB7611108C0E1
:20392000F8948C91209582238C93888182230AC0623051F4F8948C91322F309583238C9382
:203940008881822B888304C0F8948C91822B8C939FBFDF91CF9108950F931F93CF93DF937A
:203960001F92CDB7DEB7282F30E0F901E658FE4F8491F901E257FE4F1491F901EE55FE4FCD
:2039800004910023C9F0882321F069830E944A1C6981E02FF0E0EE0FFF1FE054FE4FA5916B
:2039A000B4919FB7F8948C91611103C01095812301C0812B8C939FBF0F90DF91CF911F913C
:2039C0000F9108950E94ED23FC01818D228D90E0805C9F4F821B91098F7399270895FC0171
:2039E000918D828D981731F0828DE80FF11D858D90E008958FEF9FEF0895FC01918D828DC4
:203A0000981761F0828DDF01A80FB11D5D968C91928D9F5F9F73928F90E008958FEF9FEFB9
:203A2000089581E89EE1892B49F080E090E0892B29F00E94811E81110C9400000895FC016A
:203A4000848DDF01A80FB11DA35ABF4F2C91848D90E001968F739927848FA689B7892C930D
:203A6000A089B1898C9180648C93938D848D981306C00288F389E02D80818F7D8083089561
:203A8000CF93DF93EC01888D8823C9F0EA89FB89808185FD05C0A889B9898C9186FD0FC0CB
:203AA0000FB607FCF5CF808185FFF2CFA889B9898C9185FFEDCFCE010E941F1DE7CFDF9191
:203AC000CF910895CF92DF92FF920F931F93CF93DF931F92CDB7DEB76C0181E0D601589601
:203AE0008C9358975B969C915B975C968C915C97981307C05096ED91FC915197808185FDD8
:203B00002EC0F601038D10E00F5F1F4F0F731127F02EF601848DF81211C00FB607FCF9CF19
:203B2000D6015096ED91FC915197808185FFF1CFC60169830E941F1D6981EBCF838DE80F54
:203B4000F11DE35AFF4F6083D6015B960C935B975296ED91FC915397808180620CC0D6012D
:203B60005696ED91FC91579760835096ED91FC91519780818064808381E090E00F90DF91DC
:203B8000CF911F910F91FF90DF90CF900895BF92CF92DF92EF92FF92CF93DF93EC016A011A
:203BA0007B01B22EE889F98982E08083411581EE580761057105A1F060E079E08DE390E047
:203BC000A70196010E94802121503109410951095695479537952795211580E1380798F067
:203BE000E889F989108260E874E88EE190E0A70196010E9480212150310941095109569501
:203C0000479537952795EC85FD853083EE85FF852083188EEC89FD89B082EA89FB89808135
:203C200080618083EA89FB89808188608083EA89FB89808180688083EA89FB8980818F7DD6
:203C40008083DF91CF91FF90EF90DF90CF90BF9008951F920F920FB60F9211242F938F93F8
:203C60009F93EF93FF93E091EC03F091ED038081E091F203F091F30382FD12C090818091DC
:203C8000F5038F5F8F732091F603821751F0E091F503F0E0E452FC4F958F8093F50301C00E
:203CA0008081FF91EF919F918F912F910F900FBE0F901F9018951F920F920FB60F9211248F
:203CC0002F933F934F935F936F937F938F939F93AF93BF93EF93FF938CED93E00E941F1DA2
:203CE000FF91EF91BF91AF919F918F917F916F915F914F913F912F910F900FBE0F901F90AA
:203D000018958CED93E00E94E41C21E0892B09F420E0822F08951092DF031092DE0388EEEB
:203D200093E0A0E0B0E08093E0039093E103A093E203B093E30384E492E09093DD038093D2
:203D4000DC0385EC90E09093E9038093E80384EC90E09093EB038093EA0380EC90E09093A6
:203D6000ED038093EC0381EC90E09093EF038093EE0382EC90E09093F1038093F00386ECEE
:203D800090E09093F3038093F2031092F5031092F6031092F7031092F803089508950E9448
:203DA0000F1C0E94CE1E0E949401C1E1DDE10E9497072097E1F30E94111DF9CF0C94FC2193
:203DC000CF92DF92EF92FF920F931F93CF93DF936C017A01EB01E60EF71E00E010E0CE1547
:203DE000DF0561F06991D601ED91FC910190F081E02DC6010995080F191FF1CFC801DF91F6
:203E0000CF911F910F91FF90EF90DF90CF9008956115710581F0DB010D900020E9F7AD01F5
:203E200041505109461B570BDC01ED91FC910280F381E02D099480E090E00895DC01ED9184
:203E4000FC91DB0114964D915C9115976D917C910280F381E02D09940C94081FDC01ED910B
:203E6000FC910190F081E02D099466E671E00C94081F0F931F93CF93DF93EC010E94081FC7
:203E80008C01CE010E94351F800F911FDF91CF911F910F9108958F929F92AF92BF92CF928F
:203EA000DF92EF92FF920F931F93CF93DF93CDB7DEB7A1970FB6F894DEBF0FBECDBF7C0142
:203EC000C42EE52FCB01D22E19A221E02D1510F02AE0D22E8E010F5D1F4F8D2C912CA12C5C
:203EE000B12C6C2D7E2FA50194010E9480218C2DD29E80191124015011098A3014F4805D20
:203F000001C0895CF8018083211531054105510521F0C22EE32FCA01E4CFB801C7010E9443
:203F2000081FA1960FB6F894DEBF0FBECDBFDF91CF911F910F91FF90EF90DF90CF90BF9091
:203F4000AF909F908F900895CF92DF92EF92FF920F931F93CF93DF93EC016A017B01211521
:203F6000310579F4E881F9810190F081E02D642FDF91CF911F910F91FF90EF90DF90CF901D
:203F800009942A303105E9F477FF1AC06DE20E942E1F8C0144275527BA014C195D096E0918
:203FA0007F092AE0CE010E944B1F800F911FDF91CF911F910F91FF90EF90DF90CF900895BC
:203FC0002AE0B701A601CE01DF91CF911F910F91FF90EF90DF90CF900C944B1F9A01AB015C
:203FE000662757FD6095762F0C94A41F0F931F93CF93DF93EC019A01AB01662757FD6095B1
:20400000762F0E94A41F8C01CE010E94351F800F911FDF91CF911F910F910895FC0180814A
:2040200091810C949422CF93DF93EC0188819981009711F00E949422198218821D821C82D2
:204040001B821A82DF91CF9108950F931F93CF93DF93EC018B016F5F7F4F888199810E94B8
:204060002323009731F0998388831B830A8381E001C080E0DF91CF911F910F910895CF934F
:20408000DF93EC0188819981892B29F08A819B818617970760F4CE010E942520882341F089
:2040A0008C819D81892B19F4E881F981108281E0DF91CF910895EF92FF920F931F93CF9309
:2040C000DF93EC017B018A01BA010E943F20811104C0CE010E94132007C01D830C83B70116
:2040E000888199810E944024CE01DF91CF911F910F91FF90EF900895FC0111821082138246
:204100001282158214826115710559F0FB0101900020E9F7AF0141505109461B570B0C941E
:204120005B200895CF93DF93EC01FB018617970761F0608171816115710529F044815581AB
:204140000E945B2002C00E941320CE01DF91CF910895FC01118210821382128215821482F7
:204160000C949220CF93DF93EC016115710561F0FB0101900020E9F7AF0141505109461B66
:20418000570B0E945B2002C00E941320CE01DF91CF910895EF92FF920F931F93CF93DF9393
:2041A000EC017B010C811D816115710511F480E016C04115510591F0040F151FB8010E9475
:2041C0003F208823A1F3288139818C819D81B701820F931F0E9440241D830C8381E0DF91B2
:2041E000CF911F910F91FF90EF900895CF93DF9300D0CDB7DEB769831A8241E050E0BE010F
:204200006F5F7F4F0E94CA200F900F90DF91CF910895FC01848195816817790720F480819F
:204220009181009729F41092790489E794E00895860F971F0895BF92CF92DF92EF92FF92FB
:204240000F931F93CF93DF936C017B01EA0189012417350720F48D2FE901042F182F68E6DF
:2042600071E0C6010E947C20D70114968D919C911597C817D907C8F48017910708F48C013C
:20428000D701ED91FC911197E00FF11FB08010826D917C916C0F7D1FC6010E94B220D7019D
:2042A000ED91FC91E00FF11FB082C601DF91CF911F910F91FF90EF90DF90CF90BF90089513
:2042C000FC0180819181009711F00C94102460E070E0CB010895089597FB072E16F4009467
:2042E00007D077FD09D00E94C12107FC05D03EF4909581959F4F0895709561957F4F0895E0
:20430000A1E21A2EAA1BBB1BFD010DC0AA1FBB1FEE1FFF1FA217B307E407F50720F0A21B77
:20432000B30BE40BF50B661F771F881F991F1A9469F760957095809590959B01AC01BD010D
:20434000CF010895052E97FB1EF400940E94B92157FD07D00E94802107FC03D04EF40C94E3
:20436000B92150954095309521953F4F4F4F5F4F089590958095709561957F4F8F4F9F4FE8
:204380000895AA1BBB1B51E107C0AA1FBB1FA617B70710F0A61BB70B881F991F5A95A9F75D
:2043A00080959095BC01CD010895EE0FFF1F0590F491E02D0994EF920F931F93CF93DF9313
:2043C000E80147FF02C034E101C034E0E42FFF27E7FDF095F7FF03C0F195E195F109E32EA0
:2043E000022F2E2FAE010E942127CE01DF91CF911F910F91EF900895CF93DF93823091056F
:2044000010F482E090E0E0917C04F0917D0420E030E0A0E0B0E0309739F1408151814817D0
:204420005907B8F04817590771F482819381109729F013969C938E9312972CC090937D0447
:2044400080937C0427C02115310531F04217530718F0A901DB0101C0EF019A01BD01DF012A
:204460000280F381E02DD7CF21153105F9F0281B390B2430310580F48A819B8161157105A6
:2044800021F0FB019383828304C090937D0480937C04FE01329644C0FE01E20FF31F819318
:2044A000919322503109398328833AC020917A0430917B04232B41F4209102013091030160
:2044C00030937B0420937A0420910001309101012115310541F42DB73EB7409104015091C3
:2044E0000501241B350BE0917A04F0917B04E217F307A0F42E1B3F0B2817390778F0AC019A
:204500004E5F5F4F2417350748F04E0F5F1F50937B0440937A048193919302C0E0E0F0E079
:20452000CF01DF91CF910895CF93DF93009709F487C0FC01329713821282C0917C04D0916E
:204540007D04209781F420813181280F391F80917A0490917B048217930779F5F0937B04FA
:20456000E0937A046DC0DE0120E030E0AE17BF0750F412964D915C9113979D0141155105F8
:2045800009F1DA01F3CFB383A28340815181840F951F8A179B0771F48D919C911197840F21
:2045A000951F02969183808312968D919C911397938382832115310529F4F0937D04E093E0
:2045C0007C043EC0D9011396FC93EE9312974D915D91A40FB51FEA17FB0779F4808191814B
:2045E000840F951F0296D90111969C938E938281938113969C938E931297E0E0F0E08A81B7
:204600009B81009719F0FE01EC01F9CFCE01029628813981820F931F20917A0430917B04AE
:204620002817390769F4309729F410927D0410927C0402C013821282D0937B04C0937A04D7
:20464000DF91CF910895A0E0B0E0E9E2F3E20C94312AEC01CB01209719F40E94FC21B8C08E
:20466000FE01E60FF71F9E0122503109E217F30708F4ACC0D9010D911C9111970617170782
:20468000B8F00530110508F49FC0A801445051094617570708F498C002501109061B170B77
:2046A000019311936D937C93CF010E9494228CC05B01A01AB10A4E01800E911EA0917C0431
:2046C000B0917D04612C712C60E070E0109709F449C0A815B905C9F5ED90FC90119767015F
:2046E00042E0C40ED11CCA14DB0478F147018A189B08640142E0C40ED11C1296BC90129743
:204700001396AC91B5E0CB16D10440F0B282A38391828082D9018D939C9309C00E5F1F4FFC
:204720000E0D1F1DF90111830083EB2DFA2F6115710531F0DB011396FC93EE93129744C081
:20474000F0937D04E0937C043FC06D917C9111976616770608F43B01BD0112960D90BC912F
:20476000A02DB4CF60917A0470917B0468157905E9F468167906D0F44091000150910101AC
:204780004115510541F44DB75EB76091040170910501461B570BE417F507C0F4F0937B04B2
:2047A000E0937A04F901918380830EC00E94FC217C01009759F0A801BE010E943724CE01D9
:2047C0000E949422C70104C0CE0102C080E090E0CDB7DEB7EEE00C944D2A81E090E0F89439
:2047E0000C94642AFC0188279927E89421912032E9F3293010F02E30C8F32B3241F02D3264
:2048000039F4689404C00E948524820F911D219120532A30C0F31EF4909581959F4F089517
:204820001F93FC0199278827BC01E89411911032E9F3193010F01E30C8F31B3251F01D3232
:2048400049F4689406C00E947024610F711D811D911D119110531A30B0F33EF4909580957B
:20486000709561957F4F8F4F9F4F1F910895FB01DC0102C001900D9241505040D8F70895FE
:20488000FB01DC0101900D920020E1F70895FB01DC014150504048F001900D920020C9F738
:2048A00001C01D9241505040E0F70895BB274A3031F4992322F4BDE2909581959F4F0C9438
:2048C000B024BB272A3051F4992342F4BDE290958095709561957F4F8F4F9F4F0C948E24D1
:2048E000592F482F372F262F660F771F881F991F660F771F881F991F620F731F841F951FD0
:20490000660F771F881F991F08957AE0979F902D879F802D910D11240895BB27FA01A62F4E
:204920006217710581059105330B30FB66F0AA27660F771F881F991FAA1FA21710F0A21B33
:2049400063953850A9F7A05DAA3308F0A95DA19336F7B111B1931082CA010C948D29BB2763
:20496000FB015527AA27880F991FAA1FA41710F0A41B83955051B9F7A05DAA3308F0A95D1B
:20498000A193009779F7B111B1931192CB010C948D29AEE0B0E0EFECF4E20C943B2A0D89A7
:2049A0001E898F89988D2EE02C831A83098397FF02C080E090E801979E838D83AE01455EE2
:2049C0005F4F698D7A8DCE0101960E9425254D815E8157FD0AC02F813885421753070CF4EF
:2049E0009A01F801E20FF31F10822E96E4E00C94572AAEE0B0E0EFEFF4E20C943B2A8C0181
:204A0000CA014EE04C831A83098377FF02C060E070E8615071097E836D83A901BC01CE0183
:204A200001960E9425254D815E8157FD0AC02F813885421753070CF49A01F801E20FF31F71
:204A400010822E96E4E00C94572AACE0B0E0EBE2F5E20C942D2A7C016B018A01FC0117825A
:204A60001682838181FFBDC1CE0101964C01F7019381F60193FD859193FF81916F01882381
:204A800009F4ABC1853239F493FD859193FF81916F01853229F4B70190E00E949D29E7CFF5
:204AA000512C312C20E02032A0F48B3269F030F4803259F0833269F420612CC08D3239F09A
:204AC000803339F4216026C02260246023C0286021C027FD27C030ED380F3A3078F426FFD3
:204AE00006C0FAE05F9E300D1124532E13C08AE0389E300D1124332E20620CC08E3221F41D
:204B000026FD6BC1206406C08C3611F4206802C0883641F4F60193FD859193FF81916F0147
:204B20008111C1CF982F9F7D9554933028F40C5F1F4FFFE3F9830DC0833631F0833771F0AF
:204B4000833509F05BC022C0F801808189830E5F1F4F44244394512C540115C03801F2E0D5
:204B60006F0E711CF801A080B18026FF03C0652D70E002C06FEF7FEFC5012C870E948229C3
:204B80002C0183012C852F77222E17C03801F2E06F0E711CF801A080B18026FF03C0652D0D
:204BA00070E002C06FEF7FEFC5012C870E9477292C012C852068222E830123FC1BC0832D78
:204BC00090E048165906B0F4B70180E290E00E949D293A94F4CFF50127FC859127FE81911B
:204BE0005F01B70190E00E949D2931103A94F1E04F1A51084114510471F7E5C0843611F0B1
:204C0000893639F5F80127FF07C060817181828193810C5F1F4F08C060817181882777FD40
:204C20008095982F0E5F1F4F2F76B22E97FF09C090958095709561957F4F8F4F9F4F206882
:204C4000B22E2AE030E0A4010E94CF29A82EA81844C0853729F42F7EB22E2AE030E025C01C
:204C6000F22FF97FBF2E8F36C1F018F4883579F0B4C0803719F0883721F0AFC02F2F2061B4
:204C8000B22EB4FE0DC08B2D8460B82E09C024FF0AC09F2F9660B92E06C028E030E005C02F
:204CA00020E130E002C020E132E0F801B7FE07C060817181828193810C5F1F4F06C060812F
:204CC000718180E090E00E5F1F4FA4010E94CF29A82EA818FB2DFF77BF2EB6FE0BC02B2D00
:204CE0002E7FA51450F4B4FE0AC0B2FC08C02B2D2E7E05C07A2C2B2D03C07A2C01C0752C86
:204D000024FF0DC0FE01EA0DF11D8081803311F4297E09C022FF06C07394739404C0822F0C
:204D2000867809F0739423FD13C020FF06C05A2C731418F4530C5718732C731468F4B7017C
:204D400080E290E02C870E949D2973942C85F5CF731410F4371801C0312C24FF12C0B70145
:204D600080E390E02C870E949D292C8522FF17C021FF03C088E590E002C088E790E0B70183
:204D80000CC0822F867859F021FD02C080E201C08BE227FD8DE2B70190E00E949D29A51403
:204DA00038F4B70180E390E00E949D295A94F7CFAA94F401EA0DF11D8081B70190E00E941D
:204DC0009D29A110F5CF332009F451CEB70180E290E00E949D293A94F6CFF701868197818D
:204DE00002C08FEF9FEF2C96E2E10C94492ADC01CB01FC01F999FECF06C0F2BDE1BDF89AA3
:204E0000319600B40D9241505040B8F70895F999FECF92BD81BDF89A992780B50895262FA6
:204E2000F999FECF92BD81BDF89A019700B4021639F01FBA20BD0FB6F894FA9AF99A0FBE6C
:204E400008956F927F929F92AF92BF92CF92DF92EF92FF920F931F93CF93DF93CDB7DEB7BB
:204E600029970FB6F894DEBF0FBECDBF6A01B22E102F0C3320F4FF24F394F00E02C04CE3B5
:204E8000F42E0F2D27E0AE014F5F5F4F0E949F287981272F2970213031F0E1FC06C0E0FC5F
:204EA00006C060E005C06DE203C06BE201C060E2AE2DA07173FF36C0662311F084E001C0C2
:204EC00083E08B1510F4B81A01C0B12CA1110BC0F6018B2D90E2882319F091938150FBCF4A
:204EE000CB0CD11CB12C662331F0F601608396012F5F3F4F6901C6010396E2FE05C02EE459
:204F0000F601208331E404C02EE6F601208331E631832283FC012B2D30E22223F1F13193AE
:204F20002150FBCF72FF40C0662311F084E001C083E08B1510F4B81A01C0B12CA1110BC022
:204F4000F6018B2D90E2882319F091938150FBCFCB0CD11CB12C662331F0F6016083960101
:204F60002F5F3F4F6901C6010396E2FE07C029E4F60120832EE4218326E406C029E6F60171
:204F800020832EE6218326E62283FC012B2D30E2222319F031932150FBCFFC01EB0DF11D4E
:204FA00010828EEF9FEFB7C0B1E0611101C0B0E04B2F50E01816190624F49C012F5F3F4FC1
:204FC00002C021E030E0240F351F112329F0412F50E04F5F5F4F02C040E050E0420F531F59
:204FE0002B2D30E04217530714F4B41A01C0B12C2E2D287159F4F6012B2D30E2222319F032
:2050000031932150FBCFCB0CD11CB12CBB2331F0F601608396012F5F3F4F6901A1110BC07D
:20502000F6012B2D30E3222319F031932150FBCFCB0CD11CB12CF80E0A81372F3071A32EB7
:2050400074FF03C0013309F4FA941F142CF42F2D293018F028E001C021E0682F392F97FFEC
:2050600002C060E030E0462F532F612C712C3EE2932EBC01621B71099B01DC01A41BB50B70
:20508000E1E0F0E0EC0FFD1FAE0FBF1FE12EF12CF194E194F1084F3FFFEF5F0731F4F601B0
:2050A0009082B6016F5F7F4F6B01841795074CF02417350734F4BD01660D771DFB011181BA
:2050C00001C010E341505109FFEF6F1A7F0AB6016F5F7F4F4E155F0524F0F60110836B010D
:2050E000DACF4817590739F4063320F4053319F4A11001C011E3F6011083FB018B2D90E273
:20510000882319F091938150FBCFFB01EB0DF11D108280E090E029960FB6F894DEBF0FBE3E
:20512000CDBFDF91CF911F910F91FF90EF90DF90CF90BF90AF909F907F906F900895283027
:2051400008F027E03327DA01990F311D87FD916000966105710539F432602E5F3D9330E30F
:205160002A95E1F708959F3F30F080387105610509F03C5F3C5F3D93913008F08068911D1B
:20518000DF93CF931F930F93FF92EF92192F987F9695E92F96959695E90FFF27E25DFD4F34
:2051A00099273327EE24FF24A701E70105900894079428F4360FE71EF81E491F511D660F7D
:2051C000771F881F991F0694A1F70590079428F4E70EF81E491F561FC11D770F881F991FB1
:2051E000661F0694A1F70590079428F4F80E491F561FC71FD11D880F991F661F771F0694F1
:20520000A1F70590079420F4490F561FC71FD81F990F661F771F881F0694A9F784911095AA
:20522000177041F0D695C79557954795F794E7941A95C1F7E4EDF1E068941590159135910B
:205240006591959105907FE27395E118F10A430B560BC90BD009C0F7E10CF11E431F561F5A
:20526000C91FD01D7EF4703311F48A95E6CFE894015030F0080F0AF40027021708F4202FDE
:205280002395022F7A3328F079E37D932A95E9F710C07D932A9589F60694979567953795A9
:2052A00017951794E118F10A430B560BC90BD00998F023957E9173957A3308F070E37C93E9
:2052C0002013B8F77E9170617D9330F0839571E37D9370E32A95E1F71124EF90FF900F9193
:2052E0001F91CF91DF91992787FD90950895FC010590615070400110D8F7809590958E0F7E
:205300009F1F0895FC016150704001900110D8F7809590958E0F9F1F0895DC01FC01672FC1
:2053200071917723E1F7329704C07C916D9370836291AE17BF07C8F308950F931F93CF93E0
:20534000DF93182F092FEB018B8181FD03C08FEF9FEF20C082FF10C04E815F812C813D81CC
:20536000421753077CF4E881F9819F012F5F3F4F39832883108306C0E885F985812F099572
:20538000892B29F72E813F812F5F3F4F3F832E83812F902FDF91CF911F910F910895FA0114
:2053A000AA27283051F1203181F1E8946F936E7F6E5F7F4F8F4F9F4FAF4FB1E03ED0B4E0BC
:2053C0003CD0670F781F891F9A1FA11D680F791F8A1F911DA11D6A0F711D811D911DA11D60
:2053E00020D009F468943F912AE0269F11243019305D3193DEF6CF010895462F4770405D4C
:205400004193B3E00FD0C9F7F6CF462F4F70405D4A3318F0495D31FD4052419302D0A9F7BF
:20542000EACFB4E0A6959795879577956795BA95C9F700976105710508959B01AC010A2EF4
:2054400006945795479537952795BA95C9F7620F731F841F951FA01D08952F923F924F922C
:205460005F926F927F928F929F92AF92BF92CF92DF92EF92FF920F931F93CF93DF93CDB7B5
:20548000DEB7CA1BDB0B0FB6F894DEBF0FBECDBF09942A88398848885F846E847D848C849F
:2054A0009B84AA84B984C884DF80EE80FD800C811B81AA81B981CE0FD11D0FB6F894DEBF85
:2054C0000FBECDBFED01089512E0C2EDD2E004C0FE010E94D7212296C43DD107C9F7F8945B
:2054E000FFCF00007E048000010000000C00312E330044697374616E63652053656E736FEA
:205500007220313700536574757020646F6E65004F64637A7974202F2F20506F6D69617237
:20552000202F2F2053756D61202F2F20447A69656C6E696B005241544F20302030303030F9
:2055400030303030303031350D0A00202F2F200057594E494B20504F4D494152553A2000E7
:205560005241544F2030203030303030303030303031360D0A005241544F203020303030F1
:205580003030303030303031380D0A005241544F2030203030303030303030303031390D3E
:2055A0000A00476F6E6520736C6565700000000000E21CE21CE21CE21C0000000089098B0A
:2055C00009C809170A6661696C006263006F6B00312E352E310067617465776179007365D8
:2055E0006E736F720072657065617465720000000000E21CE21CE21CE21CE21CE21CE21C9F
:20560000000000005112A2124E12F912391375139313000000007618E01EE2185518C818BB
:20562000FA1800000000621DE01EE41CFD1CEF1C401D6E616E00696E66006F7666002E0067
:20564000FFFFFFFFFFFFFFFFFFFFFFFFFFFFFFFFFFFFFFFFFFFFFFFFFFFFFFFFFFFFFFFF6A
:20566000FFFFFFFFFFFFFFFFFFFFFFFFFFFFFFFFFFFFFFFFFFFFFFFFFFFFFFFFFFFFFFFF4A
:20568000FFFFFFFFFFFFFFFFFFFFFFFFFFFFFFFFFFFFFFFFFFFFFFFFFFFFFFFFFFFFFFFF2A
:2056A000FFFFFFFFFFFFFFFFFFFFFFFFFFFFFFFFFFFFFFFFFFFFFFFFFFFFFFFFFFFFFFFF0A
:207800000C94343C0C94513C0C94513C0C94513C0C94513C0C94513C0C94513C0C94513C1D
:207820000C94513C0C94513C0C94513C0C94513C0C94513C0C94513C0C94513C0C94513CE0
:207840000C94513C0C94513C0C94513C0C94513C0C94513C0C94513C0C94513C0C94513CC0
:207860000C94513C0C94513C11241FBECFEFD8E0DEBFCDBF11E0A0E0B1E0ECE9FFE702C07E
:2078800005900D92A230B107D9F712E0A2E0B1E001C01D92AD30B107E1F70E942D3D0C94CC
:2078A000CC3F0C94003C982F9595959595959595905D8F708A307CF0282F295A8091C000B5
:2078C00085FFFCCF9093C6008091C00085FFFCCF2093C6000895282F205DF0CF982F8091CF
:2078E000C00085FFFCCF9093C6000895EF92FF920F931F93EE24FF2487018091C00087FD7B
:2079000017C00894E11CF11C011D111D81E4E81682E4F8068FE0080780E0180770F3E09106
:207920000401F091050109958091C00087FFE9CF8091C6001F910F91FF90EF9008950E949A
:20794000763C982F8091C00085FFFCCF9093C60091362CF490330CF09053892F08959755DB
:20796000892F08951F930E949F3C182F0E949F3C1295107F810F1F9108951F93182F882308
:2079800021F00E94763C1150E1F71F9108951F93182F0E94763C803249F0809103018F5FC1
:2079A000809303018530C1F01F9108958091C00085FFFCCF84E18093C6008091C00085FF4A
:2079C000FCCF1093C6008091C00085FFFCCF80E18093C6001F910895E0910401F0910501CF
:2079E00009951F9108950E94763C803241F0809103018F5F80930301853081F00895809177
:207A0000C00085FFFCCF84E18093C6008091C00085FFFCCF80E18093C6000895E0910401AC
:207A2000F09105010995089540E951E08823A1F02D9A28EE33E0FA013197F1F72150304072
:207A4000D1F72D9828EE33E0FA013197F1F721503040D1F7815061F708953F924F925F92B3
:207A60006F927F928F929F92AF92BF92CF92DF92EF92FF920F931F93CF93DF93000080E1A3
:207A80008093C4001092C50088E18093C10086E08093C2005098589A259A81E00E94143D43
:207AA00024E1F22E9EE1E92E85E9D82E0FE0C02E10E1B12EAA24A394B1E49B2EA6E58A2E44
:207AC000F2E57F2EE0E26E2E79E4572E63E5462E50E5352E0E94763C8033B1F18133B9F187
:207AE000803409F46FC0813409F476C0823409F485C0853409F488C0803531F1823521F128
:207B0000813511F1853509F485C0863509F48DC0843609F496C0843709F403C1853709F46A
:207B200072C1863709F466C0809103018F5F80930301853079F6E0910401F0910501099559
:207B40000E94763C803351F60E94F33CC3CF0E94763C803249F78091C00085FFFCCFF0928C
:207B6000C6008091C00085FFFCCF9092C6008091C00085FFFCCF8092C6008091C00085FFEA
:207B8000FCCF7092C6008091C00085FFFCCF6092C6008091C00085FFFCCF5092C6008091A1
:207BA000C00085FFFCCF4092C6008091C00085FFFCCF3092C6008091C00085FFFCCFB09214
:207BC000C60088CF0E94763C863808F4BDCF0E94763C0E94F33C7ECF0E94763C803809F473
:207BE0009CC0813809F40BC1823809F43CC1883909F48FC080E00E94C73C6CCF84E10E949F
:207C0000BD3C0E94F33C66CF85E00E94BD3C0E94F33C60CF0E94763C809306010E94763CA3
:207C2000809307010E94F33C55CF0E94763C803309F41DC183E00E94BD3C80E00E94C73C4F
:207C400049CF0E94763C809309020E94763C8093080280910C028E7F80930C020E94763C88
:207C6000853409F415C18091080290910902892B89F000E010E00E94763CF801E85FFE4F53
:207C800080830F5F1F4F80910802909109020817190788F30E94763C803209F045CF8091E0
:207CA0000C0280FF01C16091060170910701660F771F7093070160930601A0910802B091E8
:207CC00009021097C9F0E8E0F1E09B01AD014E0F5F1FF999FECF32BD21BD819180BDFA9A6C
:207CE000F99A2F5F3F4FE417F50799F76A0F7B1F70930701609306018091C00085FFFCCF16
:207D0000F092C6008091C00085FFFCCFB092C600E1CE83E00E94C73CDDCE82E00E94C73C8A
:207D2000D9CE0E94763C809309020E94763C809308028091060190910701880F991F909306
:207D40000701809306010E94763C853409F4A6C080910C028E7F80930C020E94763C80323E
:207D600009F0B8CE8091C00085FFFCCFF092C600609108027091090261157105B9F140E05F
:207D800050E080910C02A82FA170B82FB27011C0BB2309F45CC0E0910601F0910701319613
:207DA000F0930701E09306014F5F5F4F46175707E8F4AA2369F3F999FECF209106013091CA
:207DC000070132BD21BDF89A90B58091C00085FFFCCF9093C6002F5F3F4F30930701209354
:207DE00006014F5F5F4F4617570718F38091C00085FDE5CE8091C00085FFF8CFE0CE81E029
:207E00000E94C73C67CE0E94763C803209F08CCE8091C00085FFFCCFF092C6008091C000F6
:207E200085FFFCCFE092C6008091C00085FFFCCFD092C6008091C00085FFFCCFC092C6003B
:207E40008091C00085FFFCCFB092C60043CEE0910601F091070194918091C00085FFFCCFA3
:207E60009093C6009CCF80E10E94C73C33CE0E94763C0E94763C182F0E94763C112309F433
:207E800083C0113009F484C08FE00E94C73C22CE80910C02816080930C02E5CE80910C0226
:207EA000816080930C0259CF809107018823880F880B8A2180930B0280910601909107019E
:207EC000880F991F90930701809306018091080280FF09C0809108029091090201969093AA
:207EE000090280930802F894F999FECF1127E0910601F0910701C8E0D1E0809108029091A1
:207F00000902103091F40091570001700130D9F303E000935700E895009157000170013067
:207F2000D9F301E100935700E895099019900091570001700130D9F301E000935700E8954C
:207F40001395103498F011270091570001700130D9F305E000935700E8950091570001707A
:207F60000130D9F301E100935700E8953296029709F0C7CF103011F00296E5CF11248091F8
:207F8000C00085FFB9CEBCCE8EE10E94C73CA2CD85E90E94C73C9ECDF894FFCF8000FFFFB3
:207FA000FFFFFFFFFFFFFFFFFFFFFFFFFFFFFFFFFFFFFFFFFFFFFFFFFFFFFFFFFFFFFFFFE1
:207FC000FFFFFFFFFFFFFFFFFFFFFFFFFFFFFFFFFFFFFFFFFFFFFFFFFFFFFFFFFFFFFFFFC1
:207FE000FFFFFFFFFFFFFFFFFFFFFFFFFFFFFFFFFFFFFFFFFFFFFFFFFFFFFFFFFFFFFFFFA1
:00000001FF
