:100000000C9435000C945D000C945D000C945D0024
:100010000C945D000C945D000C945D000C945D00EC
:100020000C945D000C945D000C945D000C945D00DC
:100030000C945D000C945D000C945D000C945D00CC
:100040000C94E9010C945D000C94B7010C9491019F
:100050000C945D000C945D000C945D000C945D00AC
:100060000C945D000C945D00570311241FBECFEF6C
:10007000D8E0DEBFCDBF11E0A0E0B1E0ECE5F7E0F5
:1000800002C005900D92A631B107D9F721E0A6E193
:10009000B1E001C01D92AE3BB207E1F710E0C5E34D
:1000A000D0E004C02197FE010E94A603C433D1070B
:1000B000C9F70E9433020C94AC030C940000AF9279
:1000C000BF92CF92DF92EF92FF920F931F93CF9345
:1000D000DF936C017B018B01040F151FEB015E01A7
:1000E000AE18BF08C017D10759F06991D601ED913C
:1000F000FC910190F081E02DC6010995892B79F7DB
:10010000C501DF91CF911F910F91FF90EF90DF908C
:10011000CF90BF90AF900895FC01538D448D252F53
:1001200030E0842F90E0821B930B541710F0CF9691
:10013000089501970895FC01918D828D981761F0C3
:10014000A28DAE0FBF2FB11D5D968C91928D9F5FDA
:100150009F73928F90E008958FEF9FEF0895FC01B9
:10016000918D828D981731F0828DE80FF11D858D6C
:1001700090E008958FEF9FEF0895FC01918D228DFF
:10018000892F90E0805C9F4F821B91098F73992784
:1001900008958FE191E00E94BD0021E0892B09F4D0
:1001A00020E0822F089580E090E0892B29F00E94C2
:1001B000C90081110C9400000895FC01A48DA80FC2
:1001C000B92FB11DA35ABF4F2C91848D90E0019699
:1001D0008F739927848FA689B7892C93A089B189B9
:1001E0008C91837080648C93938D848D981306C05A
:1001F0000288F389E02D80818F7D80830895EF92BE
:10020000FF920F931F93CF93DF93EC0181E0888FD0
:100210009B8D8C8D98131AC0E889F989808185FFA0
:1002200015C09FB7F894EE89FF896083E889F98942
:1002300080818370806480839FBF81E090E0DF9144
:10024000CF911F910F91FF90EF900895F62E0B8D97
:1002500010E00F5F1F4F0F731127E02E8C8D8E1152
:100260000CC00FB607FCFACFE889F989808185FFB9
:10027000F5CFCE010E94DD00F1CFEB8DEC0FFD2F0D
:10028000F11DE35AFF4FF0829FB7F8940B8FEA8974
:10029000FB8980818062CFCFCF93DF93EC01888D83
:1002A0008823B9F0AA89BB89E889F9898C9185FDF1
:1002B00003C0808186FD0DC00FB607FCF7CF8C917F
:1002C00085FFF2CF808185FFEDCFCE010E94DD005A
:1002D000E9CFDF91CF9108953FB7F89480911B014A
:1002E00090911C01A0911D01B0911E0126B5A89B03
:1002F00005C02F3F19F00196A11DB11D3FBFBA2FB8
:10030000A92F982F8827BC01CD01620F711D811D77
:10031000911D42E0660F771F881F991F4A95D1F7FC
:1003200008951F920F920FB60F9211242F933F93AF
:100330004F935F936F937F938F939F93AF93BF93ED
:10034000EF93FF938FE191E00E94DD00FF91EF9129
:10035000BF91AF919F918F917F916F915F914F91DD
:100360003F912F910F900FBE0F901F9018951F92E5
:100370000F920FB60F9211242F938F939F93EF93A9
:10038000FF93E0912F01F09130018081E0913501E0
:10039000F091360182FD1BC09081809138018F5F02
:1003A0008F7320913901821741F0E0913801F0E01C
:1003B000E15EFE4F958F80933801FF91EF919F9101
:1003C0008F912F910F900FBE0F901F9018958081E5
:1003D000F4CF1F920F920FB60F9211242F933F93D9
:1003E0008F939F93AF93BF938091170190911801C2
:1003F000A0911901B0911A013091160123E0230F49
:100400002D3758F50196A11DB11D2093160180933B
:10041000170190931801A0931901B0931A018091CC
:100420001B0190911C01A0911D01B0911E0101962C
:10043000A11DB11D80931B0190931C01A0931D0170
:10044000B0931E01BF91AF919F918F913F912F91DA
:100450000F900FBE0F901F90189526E8230F02965D
:10046000A11DB11DD2CFCF93DF93CDB7DEB7A1973A
:100470000FB6F894DEBF0FBECDBF789484B582600E
:1004800084BD84B5816084BD85B5826085BD85B538
:10049000816085BD80916E00816080936E001092B6
:1004A0008100809181008260809381008091810031
:1004B00081608093810080918000816080938000C2
:1004C0008091B10084608093B1008091B000816020
:1004D0008093B00080917A00846080937A0080914C
:1004E0007A00826080937A0080917A0081608093A4
:1004F0007A0080917A00806880937A001092C1001F
:10050000E0912F01F091300182E08083E0912B0196
:10051000F0912C011082E0912D01F0912E0180E1EB
:10052000808310923701E0913301F091340186E02D
:100530008083E0913101F09132018081806180837C
:10054000E0913101F0913201808188608083E091F7
:100550003101F0913201808180688083E091310126
:10056000F091320180818F7D808390E4392E2AE0E2
:10057000822E912CA12CB12C30927C0080917A009B
:10058000806480937A0080917A0086FDFCCF909100
:100590007800809179008927982789279093BD0159
:1005A0008093BC012C01092E000C6608770897FF88
:1005B00068C06DE28FE191E00E94FF00222733279F
:1005C000A901241935094609570919A28E010F5DA1
:1005D0001F4FCA01B901A50194010E948403605D07
:1005E000F80162938F01211531054105510589F705
:1005F0000115110561F001900020E9F73197AF0175
:10060000401B510BB8018FE191E00E945F0042E076
:1006100050E062E171E08FE191E00E945F000E9492
:100620006C016B017C0184EF482E55245394612C9E
:10063000712C0E946C016C197D098E099F09683E1E
:10064000734081059105A8F3F1E04F1A5108610844
:10065000710828EEC20E23E0D21EE11CF11C4114E9
:1006600051046104710429F780E090E0892B09F4BA
:1006700083CF0E94C900882309F47ECF0E94000026
:100680007BCFA301920119A28E010F5D1F4FCA01FA
:10069000B901A50194010E948403605DF801629391
:1006A0008F01211531054105510589F7A1CFEFE1F2
:1006B000F1E01382128288EE93E0A0E0B0E0848340
:1006C0009583A683B78384E091E09183808385EC52
:1006D00090E09587848784EC90E09787868780EC0C
:1006E00090E0918B808B81EC90E0938B828B82ECFD
:1006F00090E0958B848B86EC90E0978B868B118EA7
:10070000128E138E148E0895A1E21A2EAA1BBB1B03
:10071000FD010DC0AA1FBB1FEE1FFF1FA217B307CD
:10072000E407F50720F0A21BB30BE40BF50B661FE3
:10073000771F881F991F1A9469F7609570958095A7
:1007400090959B01AC01BD01CF010895EE0FFF1FF5
:100750000590F491E02D0994F894FFCF000000007B
:10076000FF005F008C004C01BD009B00AF000D0A34
:100770000000FFFFFFFFFFFFFFFFFFFFFFFFFFFF87
:10078000E0914F01F09150018081E0915501F0918D
:10079000560182FD1BC09081809158018F5F8F733D
:1007A00020915901821741F0E0915801F0E0E15C9D
:1007B000FE4F958F80935801FF91EF919F918F91FC
:1007C0002F910F900FBE0F901F9018958081F4CF3E
:1007D0001F920F920FB60F9211242F933F938F9376
:1007E0009F93AF93BF938091310190913201A0917B
:1007F0003301B09134013091300123E0230F2D37C4
:1008000058F50196A11DB11D20933001809331014F
:1008100090933201A0933301B093340180912C0165
:1008200090912D01A0912E01B0912F010196A11D53
:10083000B11D80932C0190932D01A0932E01B093B4
:100840002F01BF91AF919F918F913F912F910F9069
:100850000FBE0F901F90189526E8230F0296A11D3A
:10086000B11DD2CF1F920F920FB60F9211242F936A
:100870003F934F935F936F937F938F939F93AF9328
:10088000BF93EF93FF938CE092E00E94A202FF914E
:10089000EF91BF91AF919F918F917F916F915F91F8
:1008A0004F913F912F910F900FBE0F901F90189571
:1008B0001F920F920FB60F9211242F933F934F93D5
:1008C0005F936F937F938F939F93AF93BF93EF93B8
:1008D000FF9384EF91E00E94A202FF91EF91BF91FC
:1008E000AF919F918F917F916F915F914F913F91C8
:1008F0002F910F900FBE0F901F9018951F920F927F
:100900000FB60F9211242F933F934F935F936F93E2
:100910007F938F939F93AF93BF93EF93FF938CED50
:1009200091E00E94A202FF91EF91BF91AF919F9140
:100930008F917F916F915F914F913F912F910F9088
:100940000FBE0F901F9018951F920F920FB60F9227
:1009500011242F933F934F935F936F937F938F93C4
:100960009F93AF93BF93EF93FF93E0913901F09181
:100970003A010995FF91EF91BF91AF919F918F91AE
:100980007F916F915F914F913F912F910F900FBE8B
:100990000F901F901895109242011092410188EE1D
:1009A00093E0A0E0B0E08093430190934401A093D2
:1009B0004501B093460186E091E090934001809319
:1009C0003F0185EC90E090934C0180934B0184ECC7
:1009D00090E090934E0180934D0180EC90E09093D5
:1009E000500180934F0181EC90E0909352018093ED
:1009F000510182EC90E0909354018093530186EC76
:100A000090E09093560180935501109258011092F6
:100A1000590110925A0110925B01E4E2F2E0118256
:100A200010821282349682E0E434F807C1F7ECEBCE
:100A3000F0E0859194919093DD018093DC018BE649
:100A400090E09093DF018093DE0181E08093E001EC
:100A50001092E101E2EEF1E01192119281E0E43FA7
:100A6000F807D1F7EEEBF0E0859194919093F501C2
:100A70008093F4018CE690E09093F7018093F60167
:100A800082E08093F8011092F901EAEFF1E08CE046
:100A900092E0119211928E179F07D9F7E0ECF0E0E7
:100AA0008591949190930D0280930C028DE690E0D5
:100AB00090930F0280930E0284E0809310021092B4
:100AC0001102E2E1F2E01192119282E0E432F807C1
:100AD000D1F70895789484B5826084BD84B581602F
:100AE00084BD85B5826085BD85B5816085BD8091F9
:100AF0006E00816080936E00109281008091810071
:100B00008260809381008091810081608093810068
:100B1000809180008160809380008091B10084602A
:100B20008093B1008091B00081608093B00080918B
:100B30007A00846080937A0080917A00826080934A
:100B40007A0080917A00816080937A0080917A00A7
:100B5000806880937A001092C10060E08FE00E946C
:100B6000190261E08FE00E94EB0161E082E00E94E7
:100B7000EB01EFE9F0E08491882309F442C0825050
:100B8000482F50E0EBE8F0E0E49128E1829FC001BB
:100B90001124BC016E517E4F8E509E4FA4E2B2E0F4
:100BA00012962C9112972111E1C09B01E9012E5F51
:100BB0003F4F08811981012B09F0D4C083E01296C0
:100BC0008C931297B983A88380EE92E011969C9340
:100BD0008E931396EC9388E1849FD001859FB00D8E
:100BE0001124A452BE4F1296CD91DC9113978881A7
:100BF000E82BE8838091680014969C91892B809360
:100C0000680060E082E00E94190261E082E00E94D8
:100C1000EB011092800080E18093810031E03093FD
:100C200037018FB780933801F89480E991E0909371
:100C300036018093350190938700809386008091E0
:100C400038018FBF80918100887F809381009091CF
:100C5000810020913701922B909381008FE493E0E3
:100C600090933A018093390130936F008091810015
:100C7000822B80938100E0914F01F091500182E03E
:100C80008083E0914B01F0914C011082E0914D0185
:100C9000F0914E018FEC808310925701E091530147
:100CA000F091540186E08083E0915101F09152016E
:100CB000808180618083E0915101F09152018081B7
:100CC00088608083E0915101F091520180818068B9
:100CD0008083E0915101F091520180818F7D80836A
:100CE0008EE191E00E94FE028BE191E00E94FE0203
:100CF00061E085E00E94190261E086E00E9419022D
:100D000061E087E00E94190261E088E00E94190218
:100D1000C0E0D0E001E01FEF8FE391E00E94C80047
:100D2000813659F580913D0190913E0188519C4F4B
:100D300090933E0180933D018091000190910101CB
:100D400001968F3F91050CF048C09093010180936C
:100D50000001209709F30E94F6008823E9F20E941F
:100D60000000DACF281739070CF420CF149622E0C0
:100D7000A434B2070CF414CF44CF8A3739F48091ED
:100D80003D0190913E01885E9340D2CF8037A1F61D
:100D900084E291E00E94FE02C0903B01D0903C01B1
:100DA0000D2C000CEE08FF084AE0C701B601F7FE63
:100DB0000DC06DE28FE391E00E942C01662777273A
:100DC000CB016C197D098E099F094AE00E940B0333
:100DD0008BE191E00E94FE02AFCF109301010093DE
:100DE0000001B7CFA1E21A2EAA1BBB1BFD010DC04B
:100DF000AA1FBB1FEE1FFF1FA217B307E407F507CB
:100E000020F0A21BB30BE40BF50B661F771F881FA6
:100E1000991F1A9469F760957095809590959B013C
:100E2000AC01BD01CF010895EE0FFF1F0590F491B5
:100E3000E02D0994F894FFCF01FF000000002C0181
:100E40008C00B9007901EA00C800DC0054696D65C6
:100E50003A20000D0A00737461727400426C616480
:100E60002000FFFFFFFFFFFFFFFFFFFFFFFFFFFF70
:100E7000FFFFFFFFFFFFFFFFFFFFFFFFFFFFFFFF82
:100E8000510580F00C9459070C94E6065F3FE4F39B
:100E9000983ED4F3869577956795B795F795E7953E
:100EA0009F5FC1F7FE2B880F911D9695879597F947
:100EB000089597F99F6780E870E060E008959FEFDC
:100EC00080EC089500240A941616170618060906E1
:100ED000089500240A9412161306140605060895B0
:100EE000092E0394000C11F4882352F0BB0F40F438
:100EF000BF2B11F460FF04C06F5F7F4F8F4F9F4F78
:100F000008950E944106B7FF0895821B930B089530
:100F1000EE0FFF1F0590F491E02D0994F894FFCF98
:100F20000100000000002C018C00B9007901EA00EA
:100F3000C800DC000D0A0044697374616E63653A91
:100F4000200073656E736F72203D200009206F755D
:080F500074707574203D20004F
:00000001FF
